{"contracts/UniswapMultihopSwapper.sol":{"UniswapMultihopSwapper":{"abi":[{"inputs":[],"stateMutability":"nonpayable","type":"constructor"},{"anonymous":false,"inputs":[{"indexed":false,"internalType":"address[]","name":"path","type":"address[]"},{"indexed":false,"internalType":"enum UniswapMultihopSwapper.SwapVersion","name":"version","type":"uint8"}],"name":"PathFound","type":"event"},{"anonymous":false,"inputs":[{"indexed":true,"internalType":"address","name":"user","type":"address"},{"indexed":false,"internalType":"address","name":"tokenIn","type":"address"},{"indexed":false,"internalType":"address","name":"tokenOut","type":"address"},{"indexed":false,"internalType":"uint256","name":"amountIn","type":"uint256"},{"indexed":false,"internalType":"uint256","name":"amountOut","type":"uint256"},{"indexed":false,"internalType":"enum UniswapMultihopSwapper.SwapVersion","name":"version","type":"uint8"}],"name":"SwapExecuted","type":"event"},{"inputs":[],"name":"UNISWAP_V2_FACTORY","outputs":[{"internalType":"address","name":"","type":"address"}],"stateMutability":"view","type":"function"},{"inputs":[],"name":"UNISWAP_V2_ROUTER","outputs":[{"internalType":"address","name":"","type":"address"}],"stateMutability":"view","type":"function"},{"inputs":[],"name":"UNISWAP_V3_QUOTER","outputs":[{"internalType":"address","name":"","type":"address"}],"stateMutability":"view","type":"function"},{"inputs":[],"name":"UNISWAP_V3_ROUTER","outputs":[{"internalType":"address","name":"","type":"address"}],"stateMutability":"view","type":"function"},{"inputs":[],"name":"USDC","outputs":[{"internalType":"address","name":"","type":"address"}],"stateMutability":"view","type":"function"},{"inputs":[],"name":"WETH","outputs":[{"internalType":"address","name":"","type":"address"}],"stateMutability":"view","type":"function"},{"inputs":[{"internalType":"address","name":"tokenIn","type":"address"},{"internalType":"address","name":"tokenOut","type":"address"},{"internalType":"uint256","name":"amountIn","type":"uint256"},{"internalType":"enum UniswapMultihopSwapper.SwapVersion","name":"version","type":"uint8"}],"name":"estimateSwap","outputs":[{"internalType":"uint256","name":"estimatedAmount","type":"uint256"}],"stateMutability":"nonpayable","type":"function"},{"inputs":[],"name":"owner","outputs":[{"internalType":"address","name":"","type":"address"}],"stateMutability":"view","type":"function"},{"inputs":[{"internalType":"address","name":"token","type":"address"},{"internalType":"uint256","name":"amount","type":"uint256"}],"name":"rescueTokens","outputs":[],"stateMutability":"nonpayable","type":"function"},{"inputs":[{"internalType":"address","name":"tokenIn","type":"address"},{"internalType":"address","name":"tokenOut","type":"address"},{"internalType":"uint256","name":"amountIn","type":"uint256"},{"internalType":"enum UniswapMultihopSwapper.SwapVersion","name":"version","type":"uint8"},{"internalType":"uint256","name":"deadline","type":"uint256"}],"name":"swap","outputs":[{"internalType":"uint256","name":"amountOut","type":"uint256"}],"stateMutability":"nonpayable","type":"function"},{"inputs":[{"internalType":"address","name":"newOwner","type":"address"}],"name":"transferOwnership","outputs":[],"stateMutability":"nonpayable","type":"function"}],"evm":{"bytecode":{"linkReferences":{},"object":"608060405234801561001057600080fd5b50600080546001600160a01b0319163317905561175f806100326000396000f3fe608060405234801561001057600080fd5b50600436106100a95760003560e01c806399d8fae31161007157806399d8fae31461014a578063a82ed9ec14610165578063ad5c464814610180578063b5d8b38f1461019b578063c5c8fb61146101ae578063f2fde38b146101c957600080fd5b806341c64a2f146100ae5780634a7c0d9d146100e6578063573761981461010757806389a302711461011c5780638da5cb5b14610137575b600080fd5b6100c9733bfa4769fb09eefc5a80d6e87c3b9c650f7ae48e81565b6040516001600160a01b0390911681526020015b60405180910390f35b6100f96100f4366004611239565b6101dc565b6040519081526020016100dd565b61011a61011536600461128a565b6103f1565b005b6100c9731c7d4b196cb0c7b01d743fbc6116a902379c723881565b6000546100c9906001600160a01b031681565b6100c9737e0987e5b3a30e3f2828572bb659a548460a300381565b6100c973c532a74256d3db42d0bf7a0400fefdbad769400881565b6100c973fff9976782d46cc05630d1f6ebab18b2324d6b1481565b6100f96101a93660046112b6565b6104b3565b6100c973ed1f6473345f45b75f8179591dd5ba1888cf2fb381565b61011a6101d736600461130f565b61077b565b6000808260018111156101f1576101f1611333565b03610301576000610202868661082b565b905060028151101561024e5760405162461bcd60e51b815260206004820152601060248201526f139bc8158c881c185d1a08199bdd5b9960821b60448201526064015b60405180910390fd5b60405163d06ca61f60e01b815260009073c532a74256d3db42d0bf7a0400fefdbad76940089063d06ca61f9061028a908890869060040161138d565b600060405180830381865afa1580156102a7573d6000803e3d6000fd5b505050506040513d6000823e601f3d908101601f191682016040526102cf91908101906113bc565b905080600182516102e09190611490565b815181106102f0576102f06114a3565b6020026020010151925050506103e9565b600061030d8686610d93565b50905060008151116103545760405162461bcd60e51b815260206004820152601060248201526f139bc8158cc81c185d1a08199bdd5b9960821b6044820152606401610245565b60408051808201825282815260208101869052905163caed066360e01b815273ed1f6473345f45b75f8179591dd5ba1888cf2fb39063caed06639061039d9084906004016114ff565b6080604051808303816000875af11580156103bc573d6000803e3d6000fd5b505050506040513d601f19601f820116820180604052508101906103e09190611531565b50919450505050505b949350505050565b6000546001600160a01b031633146104375760405162461bcd60e51b81526020600482015260096024820152682737ba1037bbb732b960b91b6044820152606401610245565b60005460405163a9059cbb60e01b81526001600160a01b039182166004820152602481018390529083169063a9059cbb906044016020604051808303816000875af115801561048a573d6000803e3d6000fd5b505050506040513d601f19601f820116820180604052508101906104ae9190611583565b505050565b60008084116104f95760405162461bcd60e51b81526020600482015260126024820152710416d6f756e74206d757374206265203e20360741b6044820152606401610245565b42821161053a5760405162461bcd60e51b815260206004820152600f60248201526e111958591b1a5b99481c185cdcd959608a1b6044820152606401610245565b6040516323b872dd60e01b8152336004820152306024820152604481018590526001600160a01b038716906323b872dd906064016020604051808303816000875af115801561058d573d6000803e3d6000fd5b505050506040513d601f19601f820116820180604052508101906105b19190611583565b506001600160a01b03861663095ea7b360008560018111156105d5576105d5611333565b146105f457733bfa4769fb09eefc5a80d6e87c3b9c650f7ae48e61060a565b73c532a74256d3db42d0bf7a0400fefdbad76940085b6040516001600160e01b031960e084901b1681526001600160a01b039091166004820152602481018790526044016020604051808303816000875af1158015610657573d6000803e3d6000fd5b505050506040513d601f19601f8201168201806040525081019061067b9190611583565b50600083600181111561069057610690611333565b036106a8576106a186868685610e37565b90506106b7565b6106b486868685611050565b90505b60405163a9059cbb60e01b8152336004820152602481018290526001600160a01b0386169063a9059cbb906044016020604051808303816000875af1158015610704573d6000803e3d6000fd5b505050506040513d601f19601f820116820180604052508101906107289190611583565b50336001600160a01b03167fa3f37f0446dcac60c3831cc0ebda32d57d7cddb7bef6d734cdd7b0c72c277922878787858860405161076a9594939291906115c7565b60405180910390a295945050505050565b6000546001600160a01b031633146107c15760405162461bcd60e51b81526020600482015260096024820152682737ba1037bbb732b960b91b6044820152606401610245565b6001600160a01b0381166108095760405162461bcd60e51b815260206004820152600f60248201526e496e76616c6964206164647265737360881b6044820152606401610245565b600080546001600160a01b0319166001600160a01b0392909216919091179055565b60405163e6a4390560e01b81526001600160a01b03808416600483015282166024820152606090737e0987e5b3a30e3f2828572bb659a548460a300390600090829063e6a4390590604401602060405180830381865afa158015610893573d6000803e3d6000fd5b505050506040513d601f19601f820116820180604052508101906108b79190611604565b90506001600160a01b038116156109535760408051600280825260608201835260009260208301908036833701905050905085816000815181106108fd576108fd6114a3565b60200260200101906001600160a01b031690816001600160a01b0316815250508481600181518110610931576109316114a3565b6001600160a01b03909216602092830291909101909101529250610d8d915050565b60405163e6a4390560e01b81526001600160a01b03868116600483015273fff9976782d46cc05630d1f6ebab18b2324d6b1460248301526000919084169063e6a4390590604401602060405180830381865afa1580156109b7573d6000803e3d6000fd5b505050506040513d601f19601f820116820180604052508101906109db9190611604565b60405163e6a4390560e01b815273fff9976782d46cc05630d1f6ebab18b2324d6b1460048201526001600160a01b03878116602483015291925060009185169063e6a4390590604401602060405180830381865afa158015610a41573d6000803e3d6000fd5b505050506040513d601f19601f82011682018060405250810190610a659190611604565b90506001600160a01b03821615801590610a8757506001600160a01b03811615155b15610b635760408051600380825260808201909252600091602082016060803683370190505090508781600081518110610ac357610ac36114a3565b60200260200101906001600160a01b031690816001600160a01b03168152505073fff9976782d46cc05630d1f6ebab18b2324d6b1481600181518110610b0b57610b0b6114a3565b60200260200101906001600160a01b031690816001600160a01b0316815250508681600281518110610b3f57610b3f6114a3565b6001600160a01b03909216602092830291909101909101529450610d8d9350505050565b60405163e6a4390560e01b81526001600160a01b038881166004830152731c7d4b196cb0c7b01d743fbc6116a902379c723860248301526000919086169063e6a4390590604401602060405180830381865afa158015610bc7573d6000803e3d6000fd5b505050506040513d601f19601f82011682018060405250810190610beb9190611604565b60405163e6a4390560e01b8152731c7d4b196cb0c7b01d743fbc6116a902379c723860048201526001600160a01b03898116602483015291925060009187169063e6a4390590604401602060405180830381865afa158015610c51573d6000803e3d6000fd5b505050506040513d601f19601f82011682018060405250810190610c759190611604565b90506001600160a01b03821615801590610c9757506001600160a01b03811615155b15610d755760408051600380825260808201909252600091602082016060803683370190505090508981600081518110610cd357610cd36114a3565b60200260200101906001600160a01b031690816001600160a01b031681525050731c7d4b196cb0c7b01d743fbc6116a902379c723881600181518110610d1b57610d1b6114a3565b60200260200101906001600160a01b031690816001600160a01b0316815250508881600281518110610d4f57610d4f6114a3565b6001600160a01b03909216602092830291909101909101529650610d8d95505050505050565b50506040805160008152602081019091529450505050505b92915050565b60606000826001600160a01b0316846001600160a01b031603610db857506000610e30565b506040516bffffffffffffffffffffffff19606085811b8216602084015261017760eb1b603484018190527ffff9976782d46cc05630d1f6ebab18b2324d6b140000000000000000000000006037850152604b84015284901b16604e820152610bb89060620160405160208183030381529060405291505b9250929050565b600080610e44868661082b565b9050600281511015610e885760405162461bcd60e51b815260206004820152600d60248201526c139bc81c185d1a08199bdd5b99609a1b6044820152606401610245565b7f03eb0ea24daa59654077964c3ce8318cb905335394b398063c5268bad552b956816000604051610eba929190611621565b60405180910390a160405163d06ca61f60e01b815260009073c532a74256d3db42d0bf7a0400fefdbad76940089063d06ca61f90610efe908890869060040161138d565b600060405180830381865afa158015610f1b573d6000803e3d6000fd5b505050506040513d6000823e601f3d908101601f19168201604052610f4391908101906113bc565b905060008160018351610f569190611490565b81518110610f6657610f666114a3565b60200260200101519050600073c532a74256d3db42d0bf7a0400fefdbad76940086001600160a01b03166338ed1739886064856063610fa59190611643565b610faf919061165a565b87308b6040518663ffffffff1660e01b8152600401610fd295949392919061167c565b6000604051808303816000875af1158015610ff1573d6000803e3d6000fd5b505050506040513d6000823e601f3d908101601f1916820160405261101991908101906113bc565b9050806001825161102a9190611490565b8151811061103a5761103a6114a3565b6020026020010151945050505050949350505050565b600080600061105f8787610d93565b9150915060008251116110a45760405162461bcd60e51b815260206004820152600d60248201526c139bc81c185d1a08199bdd5b99609a1b6044820152606401610245565b6040805160a081018252838152306020808301919091528183018790526060820188905260006080830181905283518085018552868152918201899052925163caed066360e01b81529192909173ed1f6473345f45b75f8179591dd5ba1888cf2fb39063caed06639061111b9085906004016114ff565b6080604051808303816000875af115801561113a573d6000803e3d6000fd5b505050506040513d601f19601f8201168201806040525081019061115e9190611531565b505050905060648160636111729190611643565b61117c919061165a565b608084015260405163c04b8d5960e01b8152600090733bfa4769fb09eefc5a80d6e87c3b9c650f7ae48e9063c04b8d59906111bb9087906004016116b8565b6020604051808303816000875af11580156111da573d6000803e3d6000fd5b505050506040513d601f19601f820116820180604052508101906111fe9190611710565b9b9a5050505050505050505050565b6001600160a01b038116811461122257600080fd5b50565b80356002811061123457600080fd5b919050565b6000806000806080858703121561124f57600080fd5b843561125a8161120d565b9350602085013561126a8161120d565b92506040850135915061127f60608601611225565b905092959194509250565b6000806040838503121561129d57600080fd5b82356112a88161120d565b946020939093013593505050565b600080600080600060a086880312156112ce57600080fd5b85356112d98161120d565b945060208601356112e98161120d565b9350604086013592506112fe60608701611225565b949793965091946080013592915050565b60006020828403121561132157600080fd5b813561132c8161120d565b9392505050565b634e487b7160e01b600052602160045260246000fd5b600081518084526020808501945080840160005b838110156113825781516001600160a01b03168752958201959082019060010161135d565b509495945050505050565b8281526040602082015260006103e96040830184611349565b634e487b7160e01b600052604160045260246000fd5b600060208083850312156113cf57600080fd5b825167ffffffffffffffff808211156113e757600080fd5b818501915085601f8301126113fb57600080fd5b81518181111561140d5761140d6113a6565b8060051b604051601f19603f83011681018181108582111715611432576114326113a6565b60405291825284820192508381018501918883111561145057600080fd5b938501935b8285101561146e57845184529385019392850192611455565b98975050505050505050565b634e487b7160e01b600052601160045260246000fd5b81810381811115610d8d57610d8d61147a565b634e487b7160e01b600052603260045260246000fd5b6000815180845260005b818110156114df576020818501810151868301820152016114c3565b506000602082860101526020601f19601f83011685010191505092915050565b60208152600082516040602084015261151b60608401826114b9565b9050602084015160408401528091505092915050565b6000806000806080858703121561154757600080fd5b8451935060208501516115598161120d565b604086015190935063ffffffff8116811461157357600080fd5b6060959095015193969295505050565b60006020828403121561159557600080fd5b8151801515811461132c57600080fd5b600281106115c357634e487b7160e01b600052602160045260246000fd5b9052565b6001600160a01b03868116825285166020820152604081018490526060810183905260a081016115fa60808301846115a5565b9695505050505050565b60006020828403121561161657600080fd5b815161132c8161120d565b6040815260006116346040830185611349565b905061132c60208301846115a5565b8082028115828204841417610d8d57610d8d61147a565b60008261167757634e487b7160e01b600052601260045260246000fd5b500490565b85815284602082015260a06040820152600061169b60a0830186611349565b6001600160a01b0394909416606083015250608001529392505050565b602081526000825160a060208401526116d460c08401826114b9565b905060018060a01b0360208501511660408401526040840151606084015260608401516080840152608084015160a08401528091505092915050565b60006020828403121561172257600080fd5b505191905056fea2646970667358221220509b8ed71364cf201e00ac9d77d32c72eea655fc64e801148bdacf376a852b6964736f6c63430008140033","opcodes":"PUSH1 0x80 PUSH1 0x40 MSTORE CALLVALUE DUP1 ISZERO PUSH2 0x10 JUMPI PUSH1 0x0 DUP1 REVERT JUMPDEST POP PUSH1 0x0 DUP1 SLOAD PUSH1 0x1 PUSH1 0x1 PUSH1 0xA0 SHL SUB NOT AND CALLER OR SWAP1 SSTORE PUSH2 0x175F DUP1 PUSH2 0x32 PUSH1 0x0 CODECOPY PUSH1 0x0 RETURN INVALID PUSH1 0x80 PUSH1 0x40 MSTORE CALLVALUE DUP1 ISZERO PUSH2 0x10 JUMPI PUSH1 0x0 DUP1 REVERT JUMPDEST POP PUSH1 0x4 CALLDATASIZE LT PUSH2 0xA9 JUMPI PUSH1 0x0 CALLDATALOAD PUSH1 0xE0 SHR DUP1 PUSH4 0x99D8FAE3 GT PUSH2 0x71 JUMPI DUP1 PUSH4 0x99D8FAE3 EQ PUSH2 0x14A JUMPI DUP1 PUSH4 0xA82ED9EC EQ PUSH2 0x165 JUMPI DUP1 PUSH4 0xAD5C4648 EQ PUSH2 0x180 JUMPI DUP1 PUSH4 0xB5D8B38F EQ PUSH2 0x19B JUMPI DUP1 PUSH4 0xC5C8FB61 EQ PUSH2 0x1AE JUMPI DUP1 PUSH4 0xF2FDE38B EQ PUSH2 0x1C9 JUMPI PUSH1 0x0 DUP1 REVERT JUMPDEST DUP1 PUSH4 0x41C64A2F EQ PUSH2 0xAE JUMPI DUP1 PUSH4 0x4A7C0D9D EQ PUSH2 0xE6 JUMPI DUP1 PUSH4 0x57376198 EQ PUSH2 0x107 JUMPI DUP1 PUSH4 0x89A30271 EQ PUSH2 0x11C JUMPI DUP1 PUSH4 0x8DA5CB5B EQ PUSH2 0x137 JUMPI JUMPDEST PUSH1 0x0 DUP1 REVERT JUMPDEST PUSH2 0xC9 PUSH20 0x3BFA4769FB09EEFC5A80D6E87C3B9C650F7AE48E DUP2 JUMP JUMPDEST PUSH1 0x40 MLOAD PUSH1 0x1 PUSH1 0x1 PUSH1 0xA0 SHL SUB SWAP1 SWAP2 AND DUP2 MSTORE PUSH1 0x20 ADD JUMPDEST PUSH1 0x40 MLOAD DUP1 SWAP2 SUB SWAP1 RETURN JUMPDEST PUSH2 0xF9 PUSH2 0xF4 CALLDATASIZE PUSH1 0x4 PUSH2 0x1239 JUMP JUMPDEST PUSH2 0x1DC JUMP JUMPDEST PUSH1 0x40 MLOAD SWAP1 DUP2 MSTORE PUSH1 0x20 ADD PUSH2 0xDD JUMP JUMPDEST PUSH2 0x11A PUSH2 0x115 CALLDATASIZE PUSH1 0x4 PUSH2 0x128A JUMP JUMPDEST PUSH2 0x3F1 JUMP JUMPDEST STOP JUMPDEST PUSH2 0xC9 PUSH20 0x1C7D4B196CB0C7B01D743FBC6116A902379C7238 DUP2 JUMP JUMPDEST PUSH1 0x0 SLOAD PUSH2 0xC9 SWAP1 PUSH1 0x1 PUSH1 0x1 PUSH1 0xA0 SHL SUB AND DUP2 JUMP JUMPDEST PUSH2 0xC9 PUSH20 0x7E0987E5B3A30E3F2828572BB659A548460A3003 DUP2 JUMP JUMPDEST PUSH2 0xC9 PUSH20 0xC532A74256D3DB42D0BF7A0400FEFDBAD7694008 DUP2 JUMP JUMPDEST PUSH2 0xC9 PUSH20 0xFFF9976782D46CC05630D1F6EBAB18B2324D6B14 DUP2 JUMP JUMPDEST PUSH2 0xF9 PUSH2 0x1A9 CALLDATASIZE PUSH1 0x4 PUSH2 0x12B6 JUMP JUMPDEST PUSH2 0x4B3 JUMP JUMPDEST PUSH2 0xC9 PUSH20 0xED1F6473345F45B75F8179591DD5BA1888CF2FB3 DUP2 JUMP JUMPDEST PUSH2 0x11A PUSH2 0x1D7 CALLDATASIZE PUSH1 0x4 PUSH2 0x130F JUMP JUMPDEST PUSH2 0x77B JUMP JUMPDEST PUSH1 0x0 DUP1 DUP3 PUSH1 0x1 DUP2 GT ISZERO PUSH2 0x1F1 JUMPI PUSH2 0x1F1 PUSH2 0x1333 JUMP JUMPDEST SUB PUSH2 0x301 JUMPI PUSH1 0x0 PUSH2 0x202 DUP7 DUP7 PUSH2 0x82B JUMP JUMPDEST SWAP1 POP PUSH1 0x2 DUP2 MLOAD LT ISZERO PUSH2 0x24E JUMPI PUSH1 0x40 MLOAD PUSH3 0x461BCD PUSH1 0xE5 SHL DUP2 MSTORE PUSH1 0x20 PUSH1 0x4 DUP3 ADD MSTORE PUSH1 0x10 PUSH1 0x24 DUP3 ADD MSTORE PUSH16 0x139BC8158C881C185D1A08199BDD5B99 PUSH1 0x82 SHL PUSH1 0x44 DUP3 ADD MSTORE PUSH1 0x64 ADD JUMPDEST PUSH1 0x40 MLOAD DUP1 SWAP2 SUB SWAP1 REVERT JUMPDEST PUSH1 0x40 MLOAD PUSH4 0xD06CA61F PUSH1 0xE0 SHL DUP2 MSTORE PUSH1 0x0 SWAP1 PUSH20 0xC532A74256D3DB42D0BF7A0400FEFDBAD7694008 SWAP1 PUSH4 0xD06CA61F SWAP1 PUSH2 0x28A SWAP1 DUP9 SWAP1 DUP7 SWAP1 PUSH1 0x4 ADD PUSH2 0x138D JUMP JUMPDEST PUSH1 0x0 PUSH1 0x40 MLOAD DUP1 DUP4 SUB DUP2 DUP7 GAS STATICCALL ISZERO DUP1 ISZERO PUSH2 0x2A7 JUMPI RETURNDATASIZE PUSH1 0x0 DUP1 RETURNDATACOPY RETURNDATASIZE PUSH1 0x0 REVERT JUMPDEST POP POP POP POP PUSH1 0x40 MLOAD RETURNDATASIZE PUSH1 0x0 DUP3 RETURNDATACOPY PUSH1 0x1F RETURNDATASIZE SWAP1 DUP2 ADD PUSH1 0x1F NOT AND DUP3 ADD PUSH1 0x40 MSTORE PUSH2 0x2CF SWAP2 SWAP1 DUP2 ADD SWAP1 PUSH2 0x13BC JUMP JUMPDEST SWAP1 POP DUP1 PUSH1 0x1 DUP3 MLOAD PUSH2 0x2E0 SWAP2 SWAP1 PUSH2 0x1490 JUMP JUMPDEST DUP2 MLOAD DUP2 LT PUSH2 0x2F0 JUMPI PUSH2 0x2F0 PUSH2 0x14A3 JUMP JUMPDEST PUSH1 0x20 MUL PUSH1 0x20 ADD ADD MLOAD SWAP3 POP POP POP PUSH2 0x3E9 JUMP JUMPDEST PUSH1 0x0 PUSH2 0x30D DUP7 DUP7 PUSH2 0xD93 JUMP JUMPDEST POP SWAP1 POP PUSH1 0x0 DUP2 MLOAD GT PUSH2 0x354 JUMPI PUSH1 0x40 MLOAD PUSH3 0x461BCD PUSH1 0xE5 SHL DUP2 MSTORE PUSH1 0x20 PUSH1 0x4 DUP3 ADD MSTORE PUSH1 0x10 PUSH1 0x24 DUP3 ADD MSTORE PUSH16 0x139BC8158CC81C185D1A08199BDD5B99 PUSH1 0x82 SHL PUSH1 0x44 DUP3 ADD MSTORE PUSH1 0x64 ADD PUSH2 0x245 JUMP JUMPDEST PUSH1 0x40 DUP1 MLOAD DUP1 DUP3 ADD DUP3 MSTORE DUP3 DUP2 MSTORE PUSH1 0x20 DUP2 ADD DUP7 SWAP1 MSTORE SWAP1 MLOAD PUSH4 0xCAED0663 PUSH1 0xE0 SHL DUP2 MSTORE PUSH20 0xED1F6473345F45B75F8179591DD5BA1888CF2FB3 SWAP1 PUSH4 0xCAED0663 SWAP1 PUSH2 0x39D SWAP1 DUP5 SWAP1 PUSH1 0x4 ADD PUSH2 0x14FF JUMP JUMPDEST PUSH1 0x80 PUSH1 0x40 MLOAD DUP1 DUP4 SUB DUP2 PUSH1 0x0 DUP8 GAS CALL ISZERO DUP1 ISZERO PUSH2 0x3BC JUMPI RETURNDATASIZE PUSH1 0x0 DUP1 RETURNDATACOPY RETURNDATASIZE PUSH1 0x0 REVERT JUMPDEST POP POP POP POP PUSH1 0x40 MLOAD RETURNDATASIZE PUSH1 0x1F NOT PUSH1 0x1F DUP3 ADD AND DUP3 ADD DUP1 PUSH1 0x40 MSTORE POP DUP2 ADD SWAP1 PUSH2 0x3E0 SWAP2 SWAP1 PUSH2 0x1531 JUMP JUMPDEST POP SWAP2 SWAP5 POP POP POP POP POP JUMPDEST SWAP5 SWAP4 POP POP POP POP JUMP JUMPDEST PUSH1 0x0 SLOAD PUSH1 0x1 PUSH1 0x1 PUSH1 0xA0 SHL SUB AND CALLER EQ PUSH2 0x437 JUMPI PUSH1 0x40 MLOAD PUSH3 0x461BCD PUSH1 0xE5 SHL DUP2 MSTORE PUSH1 0x20 PUSH1 0x4 DUP3 ADD MSTORE PUSH1 0x9 PUSH1 0x24 DUP3 ADD MSTORE PUSH9 0x2737BA1037BBB732B9 PUSH1 0xB9 SHL PUSH1 0x44 DUP3 ADD MSTORE PUSH1 0x64 ADD PUSH2 0x245 JUMP JUMPDEST PUSH1 0x0 SLOAD PUSH1 0x40 MLOAD PUSH4 0xA9059CBB PUSH1 0xE0 SHL DUP2 MSTORE PUSH1 0x1 PUSH1 0x1 PUSH1 0xA0 SHL SUB SWAP2 DUP3 AND PUSH1 0x4 DUP3 ADD MSTORE PUSH1 0x24 DUP2 ADD DUP4 SWAP1 MSTORE SWAP1 DUP4 AND SWAP1 PUSH4 0xA9059CBB SWAP1 PUSH1 0x44 ADD PUSH1 0x20 PUSH1 0x40 MLOAD DUP1 DUP4 SUB DUP2 PUSH1 0x0 DUP8 GAS CALL ISZERO DUP1 ISZERO PUSH2 0x48A JUMPI RETURNDATASIZE PUSH1 0x0 DUP1 RETURNDATACOPY RETURNDATASIZE PUSH1 0x0 REVERT JUMPDEST POP POP POP POP PUSH1 0x40 MLOAD RETURNDATASIZE PUSH1 0x1F NOT PUSH1 0x1F DUP3 ADD AND DUP3 ADD DUP1 PUSH1 0x40 MSTORE POP DUP2 ADD SWAP1 PUSH2 0x4AE SWAP2 SWAP1 PUSH2 0x1583 JUMP JUMPDEST POP POP POP JUMP JUMPDEST PUSH1 0x0 DUP1 DUP5 GT PUSH2 0x4F9 JUMPI PUSH1 0x40 MLOAD PUSH3 0x461BCD PUSH1 0xE5 SHL DUP2 MSTORE PUSH1 0x20 PUSH1 0x4 DUP3 ADD MSTORE PUSH1 0x12 PUSH1 0x24 DUP3 ADD MSTORE PUSH18 0x416D6F756E74206D757374206265203E203 PUSH1 0x74 SHL PUSH1 0x44 DUP3 ADD MSTORE PUSH1 0x64 ADD PUSH2 0x245 JUMP JUMPDEST TIMESTAMP DUP3 GT PUSH2 0x53A JUMPI PUSH1 0x40 MLOAD PUSH3 0x461BCD PUSH1 0xE5 SHL DUP2 MSTORE PUSH1 0x20 PUSH1 0x4 DUP3 ADD MSTORE PUSH1 0xF PUSH1 0x24 DUP3 ADD MSTORE PUSH15 0x111958591B1A5B99481C185CDCD959 PUSH1 0x8A SHL PUSH1 0x44 DUP3 ADD MSTORE PUSH1 0x64 ADD PUSH2 0x245 JUMP JUMPDEST PUSH1 0x40 MLOAD PUSH4 0x23B872DD PUSH1 0xE0 SHL DUP2 MSTORE CALLER PUSH1 0x4 DUP3 ADD MSTORE ADDRESS PUSH1 0x24 DUP3 ADD MSTORE PUSH1 0x44 DUP2 ADD DUP6 SWAP1 MSTORE PUSH1 0x1 PUSH1 0x1 PUSH1 0xA0 SHL SUB DUP8 AND SWAP1 PUSH4 0x23B872DD SWAP1 PUSH1 0x64 ADD PUSH1 0x20 PUSH1 0x40 MLOAD DUP1 DUP4 SUB DUP2 PUSH1 0x0 DUP8 GAS CALL ISZERO DUP1 ISZERO PUSH2 0x58D JUMPI RETURNDATASIZE PUSH1 0x0 DUP1 RETURNDATACOPY RETURNDATASIZE PUSH1 0x0 REVERT JUMPDEST POP POP POP POP PUSH1 0x40 MLOAD RETURNDATASIZE PUSH1 0x1F NOT PUSH1 0x1F DUP3 ADD AND DUP3 ADD DUP1 PUSH1 0x40 MSTORE POP DUP2 ADD SWAP1 PUSH2 0x5B1 SWAP2 SWAP1 PUSH2 0x1583 JUMP JUMPDEST POP PUSH1 0x1 PUSH1 0x1 PUSH1 0xA0 SHL SUB DUP7 AND PUSH4 0x95EA7B3 PUSH1 0x0 DUP6 PUSH1 0x1 DUP2 GT ISZERO PUSH2 0x5D5 JUMPI PUSH2 0x5D5 PUSH2 0x1333 JUMP JUMPDEST EQ PUSH2 0x5F4 JUMPI PUSH20 0x3BFA4769FB09EEFC5A80D6E87C3B9C650F7AE48E PUSH2 0x60A JUMP JUMPDEST PUSH20 0xC532A74256D3DB42D0BF7A0400FEFDBAD7694008 JUMPDEST PUSH1 0x40 MLOAD PUSH1 0x1 PUSH1 0x1 PUSH1 0xE0 SHL SUB NOT PUSH1 0xE0 DUP5 SWAP1 SHL AND DUP2 MSTORE PUSH1 0x1 PUSH1 0x1 PUSH1 0xA0 SHL SUB SWAP1 SWAP2 AND PUSH1 0x4 DUP3 ADD MSTORE PUSH1 0x24 DUP2 ADD DUP8 SWAP1 MSTORE PUSH1 0x44 ADD PUSH1 0x20 PUSH1 0x40 MLOAD DUP1 DUP4 SUB DUP2 PUSH1 0x0 DUP8 GAS CALL ISZERO DUP1 ISZERO PUSH2 0x657 JUMPI RETURNDATASIZE PUSH1 0x0 DUP1 RETURNDATACOPY RETURNDATASIZE PUSH1 0x0 REVERT JUMPDEST POP POP POP POP PUSH1 0x40 MLOAD RETURNDATASIZE PUSH1 0x1F NOT PUSH1 0x1F DUP3 ADD AND DUP3 ADD DUP1 PUSH1 0x40 MSTORE POP DUP2 ADD SWAP1 PUSH2 0x67B SWAP2 SWAP1 PUSH2 0x1583 JUMP JUMPDEST POP PUSH1 0x0 DUP4 PUSH1 0x1 DUP2 GT ISZERO PUSH2 0x690 JUMPI PUSH2 0x690 PUSH2 0x1333 JUMP JUMPDEST SUB PUSH2 0x6A8 JUMPI PUSH2 0x6A1 DUP7 DUP7 DUP7 DUP6 PUSH2 0xE37 JUMP JUMPDEST SWAP1 POP PUSH2 0x6B7 JUMP JUMPDEST PUSH2 0x6B4 DUP7 DUP7 DUP7 DUP6 PUSH2 0x1050 JUMP JUMPDEST SWAP1 POP JUMPDEST PUSH1 0x40 MLOAD PUSH4 0xA9059CBB PUSH1 0xE0 SHL DUP2 MSTORE CALLER PUSH1 0x4 DUP3 ADD MSTORE PUSH1 0x24 DUP2 ADD DUP3 SWAP1 MSTORE PUSH1 0x1 PUSH1 0x1 PUSH1 0xA0 SHL SUB DUP7 AND SWAP1 PUSH4 0xA9059CBB SWAP1 PUSH1 0x44 ADD PUSH1 0x20 PUSH1 0x40 MLOAD DUP1 DUP4 SUB DUP2 PUSH1 0x0 DUP8 GAS CALL ISZERO DUP1 ISZERO PUSH2 0x704 JUMPI RETURNDATASIZE PUSH1 0x0 DUP1 RETURNDATACOPY RETURNDATASIZE PUSH1 0x0 REVERT JUMPDEST POP POP POP POP PUSH1 0x40 MLOAD RETURNDATASIZE PUSH1 0x1F NOT PUSH1 0x1F DUP3 ADD AND DUP3 ADD DUP1 PUSH1 0x40 MSTORE POP DUP2 ADD SWAP1 PUSH2 0x728 SWAP2 SWAP1 PUSH2 0x1583 JUMP JUMPDEST POP CALLER PUSH1 0x1 PUSH1 0x1 PUSH1 0xA0 SHL SUB AND PUSH32 0xA3F37F0446DCAC60C3831CC0EBDA32D57D7CDDB7BEF6D734CDD7B0C72C277922 DUP8 DUP8 DUP8 DUP6 DUP9 PUSH1 0x40 MLOAD PUSH2 0x76A SWAP6 SWAP5 SWAP4 SWAP3 SWAP2 SWAP1 PUSH2 0x15C7 JUMP JUMPDEST PUSH1 0x40 MLOAD DUP1 SWAP2 SUB SWAP1 LOG2 SWAP6 SWAP5 POP POP POP POP POP JUMP JUMPDEST PUSH1 0x0 SLOAD PUSH1 0x1 PUSH1 0x1 PUSH1 0xA0 SHL SUB AND CALLER EQ PUSH2 0x7C1 JUMPI PUSH1 0x40 MLOAD PUSH3 0x461BCD PUSH1 0xE5 SHL DUP2 MSTORE PUSH1 0x20 PUSH1 0x4 DUP3 ADD MSTORE PUSH1 0x9 PUSH1 0x24 DUP3 ADD MSTORE PUSH9 0x2737BA1037BBB732B9 PUSH1 0xB9 SHL PUSH1 0x44 DUP3 ADD MSTORE PUSH1 0x64 ADD PUSH2 0x245 JUMP JUMPDEST PUSH1 0x1 PUSH1 0x1 PUSH1 0xA0 SHL SUB DUP2 AND PUSH2 0x809 JUMPI PUSH1 0x40 MLOAD PUSH3 0x461BCD PUSH1 0xE5 SHL DUP2 MSTORE PUSH1 0x20 PUSH1 0x4 DUP3 ADD MSTORE PUSH1 0xF PUSH1 0x24 DUP3 ADD MSTORE PUSH15 0x496E76616C69642061646472657373 PUSH1 0x88 SHL PUSH1 0x44 DUP3 ADD MSTORE PUSH1 0x64 ADD PUSH2 0x245 JUMP JUMPDEST PUSH1 0x0 DUP1 SLOAD PUSH1 0x1 PUSH1 0x1 PUSH1 0xA0 SHL SUB NOT AND PUSH1 0x1 PUSH1 0x1 PUSH1 0xA0 SHL SUB SWAP3 SWAP1 SWAP3 AND SWAP2 SWAP1 SWAP2 OR SWAP1 SSTORE JUMP JUMPDEST PUSH1 0x40 MLOAD PUSH4 0xE6A43905 PUSH1 0xE0 SHL DUP2 MSTORE PUSH1 0x1 PUSH1 0x1 PUSH1 0xA0 SHL SUB DUP1 DUP5 AND PUSH1 0x4 DUP4 ADD MSTORE DUP3 AND PUSH1 0x24 DUP3 ADD MSTORE PUSH1 0x60 SWAP1 PUSH20 0x7E0987E5B3A30E3F2828572BB659A548460A3003 SWAP1 PUSH1 0x0 SWAP1 DUP3 SWAP1 PUSH4 0xE6A43905 SWAP1 PUSH1 0x44 ADD PUSH1 0x20 PUSH1 0x40 MLOAD DUP1 DUP4 SUB DUP2 DUP7 GAS STATICCALL ISZERO DUP1 ISZERO PUSH2 0x893 JUMPI RETURNDATASIZE PUSH1 0x0 DUP1 RETURNDATACOPY RETURNDATASIZE PUSH1 0x0 REVERT JUMPDEST POP POP POP POP PUSH1 0x40 MLOAD RETURNDATASIZE PUSH1 0x1F NOT PUSH1 0x1F DUP3 ADD AND DUP3 ADD DUP1 PUSH1 0x40 MSTORE POP DUP2 ADD SWAP1 PUSH2 0x8B7 SWAP2 SWAP1 PUSH2 0x1604 JUMP JUMPDEST SWAP1 POP PUSH1 0x1 PUSH1 0x1 PUSH1 0xA0 SHL SUB DUP2 AND ISZERO PUSH2 0x953 JUMPI PUSH1 0x40 DUP1 MLOAD PUSH1 0x2 DUP1 DUP3 MSTORE PUSH1 0x60 DUP3 ADD DUP4 MSTORE PUSH1 0x0 SWAP3 PUSH1 0x20 DUP4 ADD SWAP1 DUP1 CALLDATASIZE DUP4 CALLDATACOPY ADD SWAP1 POP POP SWAP1 POP DUP6 DUP2 PUSH1 0x0 DUP2 MLOAD DUP2 LT PUSH2 0x8FD JUMPI PUSH2 0x8FD PUSH2 0x14A3 JUMP JUMPDEST PUSH1 0x20 MUL PUSH1 0x20 ADD ADD SWAP1 PUSH1 0x1 PUSH1 0x1 PUSH1 0xA0 SHL SUB AND SWAP1 DUP2 PUSH1 0x1 PUSH1 0x1 PUSH1 0xA0 SHL SUB AND DUP2 MSTORE POP POP DUP5 DUP2 PUSH1 0x1 DUP2 MLOAD DUP2 LT PUSH2 0x931 JUMPI PUSH2 0x931 PUSH2 0x14A3 JUMP JUMPDEST PUSH1 0x1 PUSH1 0x1 PUSH1 0xA0 SHL SUB SWAP1 SWAP3 AND PUSH1 0x20 SWAP3 DUP4 MUL SWAP2 SWAP1 SWAP2 ADD SWAP1 SWAP2 ADD MSTORE SWAP3 POP PUSH2 0xD8D SWAP2 POP POP JUMP JUMPDEST PUSH1 0x40 MLOAD PUSH4 0xE6A43905 PUSH1 0xE0 SHL DUP2 MSTORE PUSH1 0x1 PUSH1 0x1 PUSH1 0xA0 SHL SUB DUP7 DUP2 AND PUSH1 0x4 DUP4 ADD MSTORE PUSH20 0xFFF9976782D46CC05630D1F6EBAB18B2324D6B14 PUSH1 0x24 DUP4 ADD MSTORE PUSH1 0x0 SWAP2 SWAP1 DUP5 AND SWAP1 PUSH4 0xE6A43905 SWAP1 PUSH1 0x44 ADD PUSH1 0x20 PUSH1 0x40 MLOAD DUP1 DUP4 SUB DUP2 DUP7 GAS STATICCALL ISZERO DUP1 ISZERO PUSH2 0x9B7 JUMPI RETURNDATASIZE PUSH1 0x0 DUP1 RETURNDATACOPY RETURNDATASIZE PUSH1 0x0 REVERT JUMPDEST POP POP POP POP PUSH1 0x40 MLOAD RETURNDATASIZE PUSH1 0x1F NOT PUSH1 0x1F DUP3 ADD AND DUP3 ADD DUP1 PUSH1 0x40 MSTORE POP DUP2 ADD SWAP1 PUSH2 0x9DB SWAP2 SWAP1 PUSH2 0x1604 JUMP JUMPDEST PUSH1 0x40 MLOAD PUSH4 0xE6A43905 PUSH1 0xE0 SHL DUP2 MSTORE PUSH20 0xFFF9976782D46CC05630D1F6EBAB18B2324D6B14 PUSH1 0x4 DUP3 ADD MSTORE PUSH1 0x1 PUSH1 0x1 PUSH1 0xA0 SHL SUB DUP8 DUP2 AND PUSH1 0x24 DUP4 ADD MSTORE SWAP2 SWAP3 POP PUSH1 0x0 SWAP2 DUP6 AND SWAP1 PUSH4 0xE6A43905 SWAP1 PUSH1 0x44 ADD PUSH1 0x20 PUSH1 0x40 MLOAD DUP1 DUP4 SUB DUP2 DUP7 GAS STATICCALL ISZERO DUP1 ISZERO PUSH2 0xA41 JUMPI RETURNDATASIZE PUSH1 0x0 DUP1 RETURNDATACOPY RETURNDATASIZE PUSH1 0x0 REVERT JUMPDEST POP POP POP POP PUSH1 0x40 MLOAD RETURNDATASIZE PUSH1 0x1F NOT PUSH1 0x1F DUP3 ADD AND DUP3 ADD DUP1 PUSH1 0x40 MSTORE POP DUP2 ADD SWAP1 PUSH2 0xA65 SWAP2 SWAP1 PUSH2 0x1604 JUMP JUMPDEST SWAP1 POP PUSH1 0x1 PUSH1 0x1 PUSH1 0xA0 SHL SUB DUP3 AND ISZERO DUP1 ISZERO SWAP1 PUSH2 0xA87 JUMPI POP PUSH1 0x1 PUSH1 0x1 PUSH1 0xA0 SHL SUB DUP2 AND ISZERO ISZERO JUMPDEST ISZERO PUSH2 0xB63 JUMPI PUSH1 0x40 DUP1 MLOAD PUSH1 0x3 DUP1 DUP3 MSTORE PUSH1 0x80 DUP3 ADD SWAP1 SWAP3 MSTORE PUSH1 0x0 SWAP2 PUSH1 0x20 DUP3 ADD PUSH1 0x60 DUP1 CALLDATASIZE DUP4 CALLDATACOPY ADD SWAP1 POP POP SWAP1 POP DUP8 DUP2 PUSH1 0x0 DUP2 MLOAD DUP2 LT PUSH2 0xAC3 JUMPI PUSH2 0xAC3 PUSH2 0x14A3 JUMP JUMPDEST PUSH1 0x20 MUL PUSH1 0x20 ADD ADD SWAP1 PUSH1 0x1 PUSH1 0x1 PUSH1 0xA0 SHL SUB AND SWAP1 DUP2 PUSH1 0x1 PUSH1 0x1 PUSH1 0xA0 SHL SUB AND DUP2 MSTORE POP POP PUSH20 0xFFF9976782D46CC05630D1F6EBAB18B2324D6B14 DUP2 PUSH1 0x1 DUP2 MLOAD DUP2 LT PUSH2 0xB0B JUMPI PUSH2 0xB0B PUSH2 0x14A3 JUMP JUMPDEST PUSH1 0x20 MUL PUSH1 0x20 ADD ADD SWAP1 PUSH1 0x1 PUSH1 0x1 PUSH1 0xA0 SHL SUB AND SWAP1 DUP2 PUSH1 0x1 PUSH1 0x1 PUSH1 0xA0 SHL SUB AND DUP2 MSTORE POP POP DUP7 DUP2 PUSH1 0x2 DUP2 MLOAD DUP2 LT PUSH2 0xB3F JUMPI PUSH2 0xB3F PUSH2 0x14A3 JUMP JUMPDEST PUSH1 0x1 PUSH1 0x1 PUSH1 0xA0 SHL SUB SWAP1 SWAP3 AND PUSH1 0x20 SWAP3 DUP4 MUL SWAP2 SWAP1 SWAP2 ADD SWAP1 SWAP2 ADD MSTORE SWAP5 POP PUSH2 0xD8D SWAP4 POP POP POP POP JUMP JUMPDEST PUSH1 0x40 MLOAD PUSH4 0xE6A43905 PUSH1 0xE0 SHL DUP2 MSTORE PUSH1 0x1 PUSH1 0x1 PUSH1 0xA0 SHL SUB DUP9 DUP2 AND PUSH1 0x4 DUP4 ADD MSTORE PUSH20 0x1C7D4B196CB0C7B01D743FBC6116A902379C7238 PUSH1 0x24 DUP4 ADD MSTORE PUSH1 0x0 SWAP2 SWAP1 DUP7 AND SWAP1 PUSH4 0xE6A43905 SWAP1 PUSH1 0x44 ADD PUSH1 0x20 PUSH1 0x40 MLOAD DUP1 DUP4 SUB DUP2 DUP7 GAS STATICCALL ISZERO DUP1 ISZERO PUSH2 0xBC7 JUMPI RETURNDATASIZE PUSH1 0x0 DUP1 RETURNDATACOPY RETURNDATASIZE PUSH1 0x0 REVERT JUMPDEST POP POP POP POP PUSH1 0x40 MLOAD RETURNDATASIZE PUSH1 0x1F NOT PUSH1 0x1F DUP3 ADD AND DUP3 ADD DUP1 PUSH1 0x40 MSTORE POP DUP2 ADD SWAP1 PUSH2 0xBEB SWAP2 SWAP1 PUSH2 0x1604 JUMP JUMPDEST PUSH1 0x40 MLOAD PUSH4 0xE6A43905 PUSH1 0xE0 SHL DUP2 MSTORE PUSH20 0x1C7D4B196CB0C7B01D743FBC6116A902379C7238 PUSH1 0x4 DUP3 ADD MSTORE PUSH1 0x1 PUSH1 0x1 PUSH1 0xA0 SHL SUB DUP10 DUP2 AND PUSH1 0x24 DUP4 ADD MSTORE SWAP2 SWAP3 POP PUSH1 0x0 SWAP2 DUP8 AND SWAP1 PUSH4 0xE6A43905 SWAP1 PUSH1 0x44 ADD PUSH1 0x20 PUSH1 0x40 MLOAD DUP1 DUP4 SUB DUP2 DUP7 GAS STATICCALL ISZERO DUP1 ISZERO PUSH2 0xC51 JUMPI RETURNDATASIZE PUSH1 0x0 DUP1 RETURNDATACOPY RETURNDATASIZE PUSH1 0x0 REVERT JUMPDEST POP POP POP POP PUSH1 0x40 MLOAD RETURNDATASIZE PUSH1 0x1F NOT PUSH1 0x1F DUP3 ADD AND DUP3 ADD DUP1 PUSH1 0x40 MSTORE POP DUP2 ADD SWAP1 PUSH2 0xC75 SWAP2 SWAP1 PUSH2 0x1604 JUMP JUMPDEST SWAP1 POP PUSH1 0x1 PUSH1 0x1 PUSH1 0xA0 SHL SUB DUP3 AND ISZERO DUP1 ISZERO SWAP1 PUSH2 0xC97 JUMPI POP PUSH1 0x1 PUSH1 0x1 PUSH1 0xA0 SHL SUB DUP2 AND ISZERO ISZERO JUMPDEST ISZERO PUSH2 0xD75 JUMPI PUSH1 0x40 DUP1 MLOAD PUSH1 0x3 DUP1 DUP3 MSTORE PUSH1 0x80 DUP3 ADD SWAP1 SWAP3 MSTORE PUSH1 0x0 SWAP2 PUSH1 0x20 DUP3 ADD PUSH1 0x60 DUP1 CALLDATASIZE DUP4 CALLDATACOPY ADD SWAP1 POP POP SWAP1 POP DUP10 DUP2 PUSH1 0x0 DUP2 MLOAD DUP2 LT PUSH2 0xCD3 JUMPI PUSH2 0xCD3 PUSH2 0x14A3 JUMP JUMPDEST PUSH1 0x20 MUL PUSH1 0x20 ADD ADD SWAP1 PUSH1 0x1 PUSH1 0x1 PUSH1 0xA0 SHL SUB AND SWAP1 DUP2 PUSH1 0x1 PUSH1 0x1 PUSH1 0xA0 SHL SUB AND DUP2 MSTORE POP POP PUSH20 0x1C7D4B196CB0C7B01D743FBC6116A902379C7238 DUP2 PUSH1 0x1 DUP2 MLOAD DUP2 LT PUSH2 0xD1B JUMPI PUSH2 0xD1B PUSH2 0x14A3 JUMP JUMPDEST PUSH1 0x20 MUL PUSH1 0x20 ADD ADD SWAP1 PUSH1 0x1 PUSH1 0x1 PUSH1 0xA0 SHL SUB AND SWAP1 DUP2 PUSH1 0x1 PUSH1 0x1 PUSH1 0xA0 SHL SUB AND DUP2 MSTORE POP POP DUP9 DUP2 PUSH1 0x2 DUP2 MLOAD DUP2 LT PUSH2 0xD4F JUMPI PUSH2 0xD4F PUSH2 0x14A3 JUMP JUMPDEST PUSH1 0x1 PUSH1 0x1 PUSH1 0xA0 SHL SUB SWAP1 SWAP3 AND PUSH1 0x20 SWAP3 DUP4 MUL SWAP2 SWAP1 SWAP2 ADD SWAP1 SWAP2 ADD MSTORE SWAP7 POP PUSH2 0xD8D SWAP6 POP POP POP POP POP POP JUMP JUMPDEST POP POP PUSH1 0x40 DUP1 MLOAD PUSH1 0x0 DUP2 MSTORE PUSH1 0x20 DUP2 ADD SWAP1 SWAP2 MSTORE SWAP5 POP POP POP POP POP JUMPDEST SWAP3 SWAP2 POP POP JUMP JUMPDEST PUSH1 0x60 PUSH1 0x0 DUP3 PUSH1 0x1 PUSH1 0x1 PUSH1 0xA0 SHL SUB AND DUP5 PUSH1 0x1 PUSH1 0x1 PUSH1 0xA0 SHL SUB AND SUB PUSH2 0xDB8 JUMPI POP PUSH1 0x0 PUSH2 0xE30 JUMP JUMPDEST POP PUSH1 0x40 MLOAD PUSH12 0xFFFFFFFFFFFFFFFFFFFFFFFF NOT PUSH1 0x60 DUP6 DUP2 SHL DUP3 AND PUSH1 0x20 DUP5 ADD MSTORE PUSH2 0x177 PUSH1 0xEB SHL PUSH1 0x34 DUP5 ADD DUP2 SWAP1 MSTORE PUSH32 0xFFF9976782D46CC05630D1F6EBAB18B2324D6B14000000000000000000000000 PUSH1 0x37 DUP6 ADD MSTORE PUSH1 0x4B DUP5 ADD MSTORE DUP5 SWAP1 SHL AND PUSH1 0x4E DUP3 ADD MSTORE PUSH2 0xBB8 SWAP1 PUSH1 0x62 ADD PUSH1 0x40 MLOAD PUSH1 0x20 DUP2 DUP4 SUB SUB DUP2 MSTORE SWAP1 PUSH1 0x40 MSTORE SWAP2 POP JUMPDEST SWAP3 POP SWAP3 SWAP1 POP JUMP JUMPDEST PUSH1 0x0 DUP1 PUSH2 0xE44 DUP7 DUP7 PUSH2 0x82B JUMP JUMPDEST SWAP1 POP PUSH1 0x2 DUP2 MLOAD LT ISZERO PUSH2 0xE88 JUMPI PUSH1 0x40 MLOAD PUSH3 0x461BCD PUSH1 0xE5 SHL DUP2 MSTORE PUSH1 0x20 PUSH1 0x4 DUP3 ADD MSTORE PUSH1 0xD PUSH1 0x24 DUP3 ADD MSTORE PUSH13 0x139BC81C185D1A08199BDD5B99 PUSH1 0x9A SHL PUSH1 0x44 DUP3 ADD MSTORE PUSH1 0x64 ADD PUSH2 0x245 JUMP JUMPDEST PUSH32 0x3EB0EA24DAA59654077964C3CE8318CB905335394B398063C5268BAD552B956 DUP2 PUSH1 0x0 PUSH1 0x40 MLOAD PUSH2 0xEBA SWAP3 SWAP2 SWAP1 PUSH2 0x1621 JUMP JUMPDEST PUSH1 0x40 MLOAD DUP1 SWAP2 SUB SWAP1 LOG1 PUSH1 0x40 MLOAD PUSH4 0xD06CA61F PUSH1 0xE0 SHL DUP2 MSTORE PUSH1 0x0 SWAP1 PUSH20 0xC532A74256D3DB42D0BF7A0400FEFDBAD7694008 SWAP1 PUSH4 0xD06CA61F SWAP1 PUSH2 0xEFE SWAP1 DUP9 SWAP1 DUP7 SWAP1 PUSH1 0x4 ADD PUSH2 0x138D JUMP JUMPDEST PUSH1 0x0 PUSH1 0x40 MLOAD DUP1 DUP4 SUB DUP2 DUP7 GAS STATICCALL ISZERO DUP1 ISZERO PUSH2 0xF1B JUMPI RETURNDATASIZE PUSH1 0x0 DUP1 RETURNDATACOPY RETURNDATASIZE PUSH1 0x0 REVERT JUMPDEST POP POP POP POP PUSH1 0x40 MLOAD RETURNDATASIZE PUSH1 0x0 DUP3 RETURNDATACOPY PUSH1 0x1F RETURNDATASIZE SWAP1 DUP2 ADD PUSH1 0x1F NOT AND DUP3 ADD PUSH1 0x40 MSTORE PUSH2 0xF43 SWAP2 SWAP1 DUP2 ADD SWAP1 PUSH2 0x13BC JUMP JUMPDEST SWAP1 POP PUSH1 0x0 DUP2 PUSH1 0x1 DUP4 MLOAD PUSH2 0xF56 SWAP2 SWAP1 PUSH2 0x1490 JUMP JUMPDEST DUP2 MLOAD DUP2 LT PUSH2 0xF66 JUMPI PUSH2 0xF66 PUSH2 0x14A3 JUMP JUMPDEST PUSH1 0x20 MUL PUSH1 0x20 ADD ADD MLOAD SWAP1 POP PUSH1 0x0 PUSH20 0xC532A74256D3DB42D0BF7A0400FEFDBAD7694008 PUSH1 0x1 PUSH1 0x1 PUSH1 0xA0 SHL SUB AND PUSH4 0x38ED1739 DUP9 PUSH1 0x64 DUP6 PUSH1 0x63 PUSH2 0xFA5 SWAP2 SWAP1 PUSH2 0x1643 JUMP JUMPDEST PUSH2 0xFAF SWAP2 SWAP1 PUSH2 0x165A JUMP JUMPDEST DUP8 ADDRESS DUP12 PUSH1 0x40 MLOAD DUP7 PUSH4 0xFFFFFFFF AND PUSH1 0xE0 SHL DUP2 MSTORE PUSH1 0x4 ADD PUSH2 0xFD2 SWAP6 SWAP5 SWAP4 SWAP3 SWAP2 SWAP1 PUSH2 0x167C JUMP JUMPDEST PUSH1 0x0 PUSH1 0x40 MLOAD DUP1 DUP4 SUB DUP2 PUSH1 0x0 DUP8 GAS CALL ISZERO DUP1 ISZERO PUSH2 0xFF1 JUMPI RETURNDATASIZE PUSH1 0x0 DUP1 RETURNDATACOPY RETURNDATASIZE PUSH1 0x0 REVERT JUMPDEST POP POP POP POP PUSH1 0x40 MLOAD RETURNDATASIZE PUSH1 0x0 DUP3 RETURNDATACOPY PUSH1 0x1F RETURNDATASIZE SWAP1 DUP2 ADD PUSH1 0x1F NOT AND DUP3 ADD PUSH1 0x40 MSTORE PUSH2 0x1019 SWAP2 SWAP1 DUP2 ADD SWAP1 PUSH2 0x13BC JUMP JUMPDEST SWAP1 POP DUP1 PUSH1 0x1 DUP3 MLOAD PUSH2 0x102A SWAP2 SWAP1 PUSH2 0x1490 JUMP JUMPDEST DUP2 MLOAD DUP2 LT PUSH2 0x103A JUMPI PUSH2 0x103A PUSH2 0x14A3 JUMP JUMPDEST PUSH1 0x20 MUL PUSH1 0x20 ADD ADD MLOAD SWAP5 POP POP POP POP POP SWAP5 SWAP4 POP POP POP POP JUMP JUMPDEST PUSH1 0x0 DUP1 PUSH1 0x0 PUSH2 0x105F DUP8 DUP8 PUSH2 0xD93 JUMP JUMPDEST SWAP2 POP SWAP2 POP PUSH1 0x0 DUP3 MLOAD GT PUSH2 0x10A4 JUMPI PUSH1 0x40 MLOAD PUSH3 0x461BCD PUSH1 0xE5 SHL DUP2 MSTORE PUSH1 0x20 PUSH1 0x4 DUP3 ADD MSTORE PUSH1 0xD PUSH1 0x24 DUP3 ADD MSTORE PUSH13 0x139BC81C185D1A08199BDD5B99 PUSH1 0x9A SHL PUSH1 0x44 DUP3 ADD MSTORE PUSH1 0x64 ADD PUSH2 0x245 JUMP JUMPDEST PUSH1 0x40 DUP1 MLOAD PUSH1 0xA0 DUP2 ADD DUP3 MSTORE DUP4 DUP2 MSTORE ADDRESS PUSH1 0x20 DUP1 DUP4 ADD SWAP2 SWAP1 SWAP2 MSTORE DUP2 DUP4 ADD DUP8 SWAP1 MSTORE PUSH1 0x60 DUP3 ADD DUP9 SWAP1 MSTORE PUSH1 0x0 PUSH1 0x80 DUP4 ADD DUP2 SWAP1 MSTORE DUP4 MLOAD DUP1 DUP6 ADD DUP6 MSTORE DUP7 DUP2 MSTORE SWAP2 DUP3 ADD DUP10 SWAP1 MSTORE SWAP3 MLOAD PUSH4 0xCAED0663 PUSH1 0xE0 SHL DUP2 MSTORE SWAP2 SWAP3 SWAP1 SWAP2 PUSH20 0xED1F6473345F45B75F8179591DD5BA1888CF2FB3 SWAP1 PUSH4 0xCAED0663 SWAP1 PUSH2 0x111B SWAP1 DUP6 SWAP1 PUSH1 0x4 ADD PUSH2 0x14FF JUMP JUMPDEST PUSH1 0x80 PUSH1 0x40 MLOAD DUP1 DUP4 SUB DUP2 PUSH1 0x0 DUP8 GAS CALL ISZERO DUP1 ISZERO PUSH2 0x113A JUMPI RETURNDATASIZE PUSH1 0x0 DUP1 RETURNDATACOPY RETURNDATASIZE PUSH1 0x0 REVERT JUMPDEST POP POP POP POP PUSH1 0x40 MLOAD RETURNDATASIZE PUSH1 0x1F NOT PUSH1 0x1F DUP3 ADD AND DUP3 ADD DUP1 PUSH1 0x40 MSTORE POP DUP2 ADD SWAP1 PUSH2 0x115E SWAP2 SWAP1 PUSH2 0x1531 JUMP JUMPDEST POP POP POP SWAP1 POP PUSH1 0x64 DUP2 PUSH1 0x63 PUSH2 0x1172 SWAP2 SWAP1 PUSH2 0x1643 JUMP JUMPDEST PUSH2 0x117C SWAP2 SWAP1 PUSH2 0x165A JUMP JUMPDEST PUSH1 0x80 DUP5 ADD MSTORE PUSH1 0x40 MLOAD PUSH4 0xC04B8D59 PUSH1 0xE0 SHL DUP2 MSTORE PUSH1 0x0 SWAP1 PUSH20 0x3BFA4769FB09EEFC5A80D6E87C3B9C650F7AE48E SWAP1 PUSH4 0xC04B8D59 SWAP1 PUSH2 0x11BB SWAP1 DUP8 SWAP1 PUSH1 0x4 ADD PUSH2 0x16B8 JUMP JUMPDEST PUSH1 0x20 PUSH1 0x40 MLOAD DUP1 DUP4 SUB DUP2 PUSH1 0x0 DUP8 GAS CALL ISZERO DUP1 ISZERO PUSH2 0x11DA JUMPI RETURNDATASIZE PUSH1 0x0 DUP1 RETURNDATACOPY RETURNDATASIZE PUSH1 0x0 REVERT JUMPDEST POP POP POP POP PUSH1 0x40 MLOAD RETURNDATASIZE PUSH1 0x1F NOT PUSH1 0x1F DUP3 ADD AND DUP3 ADD DUP1 PUSH1 0x40 MSTORE POP DUP2 ADD SWAP1 PUSH2 0x11FE SWAP2 SWAP1 PUSH2 0x1710 JUMP JUMPDEST SWAP12 SWAP11 POP POP POP POP POP POP POP POP POP POP POP JUMP JUMPDEST PUSH1 0x1 PUSH1 0x1 PUSH1 0xA0 SHL SUB DUP2 AND DUP2 EQ PUSH2 0x1222 JUMPI PUSH1 0x0 DUP1 REVERT JUMPDEST POP JUMP JUMPDEST DUP1 CALLDATALOAD PUSH1 0x2 DUP2 LT PUSH2 0x1234 JUMPI PUSH1 0x0 DUP1 REVERT JUMPDEST SWAP2 SWAP1 POP JUMP JUMPDEST PUSH1 0x0 DUP1 PUSH1 0x0 DUP1 PUSH1 0x80 DUP6 DUP8 SUB SLT ISZERO PUSH2 0x124F JUMPI PUSH1 0x0 DUP1 REVERT JUMPDEST DUP5 CALLDATALOAD PUSH2 0x125A DUP2 PUSH2 0x120D JUMP JUMPDEST SWAP4 POP PUSH1 0x20 DUP6 ADD CALLDATALOAD PUSH2 0x126A DUP2 PUSH2 0x120D JUMP JUMPDEST SWAP3 POP PUSH1 0x40 DUP6 ADD CALLDATALOAD SWAP2 POP PUSH2 0x127F PUSH1 0x60 DUP7 ADD PUSH2 0x1225 JUMP JUMPDEST SWAP1 POP SWAP3 SWAP6 SWAP2 SWAP5 POP SWAP3 POP JUMP JUMPDEST PUSH1 0x0 DUP1 PUSH1 0x40 DUP4 DUP6 SUB SLT ISZERO PUSH2 0x129D JUMPI PUSH1 0x0 DUP1 REVERT JUMPDEST DUP3 CALLDATALOAD PUSH2 0x12A8 DUP2 PUSH2 0x120D JUMP JUMPDEST SWAP5 PUSH1 0x20 SWAP4 SWAP1 SWAP4 ADD CALLDATALOAD SWAP4 POP POP POP JUMP JUMPDEST PUSH1 0x0 DUP1 PUSH1 0x0 DUP1 PUSH1 0x0 PUSH1 0xA0 DUP7 DUP9 SUB SLT ISZERO PUSH2 0x12CE JUMPI PUSH1 0x0 DUP1 REVERT JUMPDEST DUP6 CALLDATALOAD PUSH2 0x12D9 DUP2 PUSH2 0x120D JUMP JUMPDEST SWAP5 POP PUSH1 0x20 DUP7 ADD CALLDATALOAD PUSH2 0x12E9 DUP2 PUSH2 0x120D JUMP JUMPDEST SWAP4 POP PUSH1 0x40 DUP7 ADD CALLDATALOAD SWAP3 POP PUSH2 0x12FE PUSH1 0x60 DUP8 ADD PUSH2 0x1225 JUMP JUMPDEST SWAP5 SWAP8 SWAP4 SWAP7 POP SWAP2 SWAP5 PUSH1 0x80 ADD CALLDATALOAD SWAP3 SWAP2 POP POP JUMP JUMPDEST PUSH1 0x0 PUSH1 0x20 DUP3 DUP5 SUB SLT ISZERO PUSH2 0x1321 JUMPI PUSH1 0x0 DUP1 REVERT JUMPDEST DUP2 CALLDATALOAD PUSH2 0x132C DUP2 PUSH2 0x120D JUMP JUMPDEST SWAP4 SWAP3 POP POP POP JUMP JUMPDEST PUSH4 0x4E487B71 PUSH1 0xE0 SHL PUSH1 0x0 MSTORE PUSH1 0x21 PUSH1 0x4 MSTORE PUSH1 0x24 PUSH1 0x0 REVERT JUMPDEST PUSH1 0x0 DUP2 MLOAD DUP1 DUP5 MSTORE PUSH1 0x20 DUP1 DUP6 ADD SWAP5 POP DUP1 DUP5 ADD PUSH1 0x0 JUMPDEST DUP4 DUP2 LT ISZERO PUSH2 0x1382 JUMPI DUP2 MLOAD PUSH1 0x1 PUSH1 0x1 PUSH1 0xA0 SHL SUB AND DUP8 MSTORE SWAP6 DUP3 ADD SWAP6 SWAP1 DUP3 ADD SWAP1 PUSH1 0x1 ADD PUSH2 0x135D JUMP JUMPDEST POP SWAP5 SWAP6 SWAP5 POP POP POP POP POP JUMP JUMPDEST DUP3 DUP2 MSTORE PUSH1 0x40 PUSH1 0x20 DUP3 ADD MSTORE PUSH1 0x0 PUSH2 0x3E9 PUSH1 0x40 DUP4 ADD DUP5 PUSH2 0x1349 JUMP JUMPDEST PUSH4 0x4E487B71 PUSH1 0xE0 SHL PUSH1 0x0 MSTORE PUSH1 0x41 PUSH1 0x4 MSTORE PUSH1 0x24 PUSH1 0x0 REVERT JUMPDEST PUSH1 0x0 PUSH1 0x20 DUP1 DUP4 DUP6 SUB SLT ISZERO PUSH2 0x13CF JUMPI PUSH1 0x0 DUP1 REVERT JUMPDEST DUP3 MLOAD PUSH8 0xFFFFFFFFFFFFFFFF DUP1 DUP3 GT ISZERO PUSH2 0x13E7 JUMPI PUSH1 0x0 DUP1 REVERT JUMPDEST DUP2 DUP6 ADD SWAP2 POP DUP6 PUSH1 0x1F DUP4 ADD SLT PUSH2 0x13FB JUMPI PUSH1 0x0 DUP1 REVERT JUMPDEST DUP2 MLOAD DUP2 DUP2 GT ISZERO PUSH2 0x140D JUMPI PUSH2 0x140D PUSH2 0x13A6 JUMP JUMPDEST DUP1 PUSH1 0x5 SHL PUSH1 0x40 MLOAD PUSH1 0x1F NOT PUSH1 0x3F DUP4 ADD AND DUP2 ADD DUP2 DUP2 LT DUP6 DUP3 GT OR ISZERO PUSH2 0x1432 JUMPI PUSH2 0x1432 PUSH2 0x13A6 JUMP JUMPDEST PUSH1 0x40 MSTORE SWAP2 DUP3 MSTORE DUP5 DUP3 ADD SWAP3 POP DUP4 DUP2 ADD DUP6 ADD SWAP2 DUP9 DUP4 GT ISZERO PUSH2 0x1450 JUMPI PUSH1 0x0 DUP1 REVERT JUMPDEST SWAP4 DUP6 ADD SWAP4 JUMPDEST DUP3 DUP6 LT ISZERO PUSH2 0x146E JUMPI DUP5 MLOAD DUP5 MSTORE SWAP4 DUP6 ADD SWAP4 SWAP3 DUP6 ADD SWAP3 PUSH2 0x1455 JUMP JUMPDEST SWAP9 SWAP8 POP POP POP POP POP POP POP POP JUMP JUMPDEST PUSH4 0x4E487B71 PUSH1 0xE0 SHL PUSH1 0x0 MSTORE PUSH1 0x11 PUSH1 0x4 MSTORE PUSH1 0x24 PUSH1 0x0 REVERT JUMPDEST DUP2 DUP2 SUB DUP2 DUP2 GT ISZERO PUSH2 0xD8D JUMPI PUSH2 0xD8D PUSH2 0x147A JUMP JUMPDEST PUSH4 0x4E487B71 PUSH1 0xE0 SHL PUSH1 0x0 MSTORE PUSH1 0x32 PUSH1 0x4 MSTORE PUSH1 0x24 PUSH1 0x0 REVERT JUMPDEST PUSH1 0x0 DUP2 MLOAD DUP1 DUP5 MSTORE PUSH1 0x0 JUMPDEST DUP2 DUP2 LT ISZERO PUSH2 0x14DF JUMPI PUSH1 0x20 DUP2 DUP6 ADD DUP2 ADD MLOAD DUP7 DUP4 ADD DUP3 ADD MSTORE ADD PUSH2 0x14C3 JUMP JUMPDEST POP PUSH1 0x0 PUSH1 0x20 DUP3 DUP7 ADD ADD MSTORE PUSH1 0x20 PUSH1 0x1F NOT PUSH1 0x1F DUP4 ADD AND DUP6 ADD ADD SWAP2 POP POP SWAP3 SWAP2 POP POP JUMP JUMPDEST PUSH1 0x20 DUP2 MSTORE PUSH1 0x0 DUP3 MLOAD PUSH1 0x40 PUSH1 0x20 DUP5 ADD MSTORE PUSH2 0x151B PUSH1 0x60 DUP5 ADD DUP3 PUSH2 0x14B9 JUMP JUMPDEST SWAP1 POP PUSH1 0x20 DUP5 ADD MLOAD PUSH1 0x40 DUP5 ADD MSTORE DUP1 SWAP2 POP POP SWAP3 SWAP2 POP POP JUMP JUMPDEST PUSH1 0x0 DUP1 PUSH1 0x0 DUP1 PUSH1 0x80 DUP6 DUP8 SUB SLT ISZERO PUSH2 0x1547 JUMPI PUSH1 0x0 DUP1 REVERT JUMPDEST DUP5 MLOAD SWAP4 POP PUSH1 0x20 DUP6 ADD MLOAD PUSH2 0x1559 DUP2 PUSH2 0x120D JUMP JUMPDEST PUSH1 0x40 DUP7 ADD MLOAD SWAP1 SWAP4 POP PUSH4 0xFFFFFFFF DUP2 AND DUP2 EQ PUSH2 0x1573 JUMPI PUSH1 0x0 DUP1 REVERT JUMPDEST PUSH1 0x60 SWAP6 SWAP1 SWAP6 ADD MLOAD SWAP4 SWAP7 SWAP3 SWAP6 POP POP POP JUMP JUMPDEST PUSH1 0x0 PUSH1 0x20 DUP3 DUP5 SUB SLT ISZERO PUSH2 0x1595 JUMPI PUSH1 0x0 DUP1 REVERT JUMPDEST DUP2 MLOAD DUP1 ISZERO ISZERO DUP2 EQ PUSH2 0x132C JUMPI PUSH1 0x0 DUP1 REVERT JUMPDEST PUSH1 0x2 DUP2 LT PUSH2 0x15C3 JUMPI PUSH4 0x4E487B71 PUSH1 0xE0 SHL PUSH1 0x0 MSTORE PUSH1 0x21 PUSH1 0x4 MSTORE PUSH1 0x24 PUSH1 0x0 REVERT JUMPDEST SWAP1 MSTORE JUMP JUMPDEST PUSH1 0x1 PUSH1 0x1 PUSH1 0xA0 SHL SUB DUP7 DUP2 AND DUP3 MSTORE DUP6 AND PUSH1 0x20 DUP3 ADD MSTORE PUSH1 0x40 DUP2 ADD DUP5 SWAP1 MSTORE PUSH1 0x60 DUP2 ADD DUP4 SWAP1 MSTORE PUSH1 0xA0 DUP2 ADD PUSH2 0x15FA PUSH1 0x80 DUP4 ADD DUP5 PUSH2 0x15A5 JUMP JUMPDEST SWAP7 SWAP6 POP POP POP POP POP POP JUMP JUMPDEST PUSH1 0x0 PUSH1 0x20 DUP3 DUP5 SUB SLT ISZERO PUSH2 0x1616 JUMPI PUSH1 0x0 DUP1 REVERT JUMPDEST DUP2 MLOAD PUSH2 0x132C DUP2 PUSH2 0x120D JUMP JUMPDEST PUSH1 0x40 DUP2 MSTORE PUSH1 0x0 PUSH2 0x1634 PUSH1 0x40 DUP4 ADD DUP6 PUSH2 0x1349 JUMP JUMPDEST SWAP1 POP PUSH2 0x132C PUSH1 0x20 DUP4 ADD DUP5 PUSH2 0x15A5 JUMP JUMPDEST DUP1 DUP3 MUL DUP2 ISZERO DUP3 DUP3 DIV DUP5 EQ OR PUSH2 0xD8D JUMPI PUSH2 0xD8D PUSH2 0x147A JUMP JUMPDEST PUSH1 0x0 DUP3 PUSH2 0x1677 JUMPI PUSH4 0x4E487B71 PUSH1 0xE0 SHL PUSH1 0x0 MSTORE PUSH1 0x12 PUSH1 0x4 MSTORE PUSH1 0x24 PUSH1 0x0 REVERT JUMPDEST POP DIV SWAP1 JUMP JUMPDEST DUP6 DUP2 MSTORE DUP5 PUSH1 0x20 DUP3 ADD MSTORE PUSH1 0xA0 PUSH1 0x40 DUP3 ADD MSTORE PUSH1 0x0 PUSH2 0x169B PUSH1 0xA0 DUP4 ADD DUP7 PUSH2 0x1349 JUMP JUMPDEST PUSH1 0x1 PUSH1 0x1 PUSH1 0xA0 SHL SUB SWAP5 SWAP1 SWAP5 AND PUSH1 0x60 DUP4 ADD MSTORE POP PUSH1 0x80 ADD MSTORE SWAP4 SWAP3 POP POP POP JUMP JUMPDEST PUSH1 0x20 DUP2 MSTORE PUSH1 0x0 DUP3 MLOAD PUSH1 0xA0 PUSH1 0x20 DUP5 ADD MSTORE PUSH2 0x16D4 PUSH1 0xC0 DUP5 ADD DUP3 PUSH2 0x14B9 JUMP JUMPDEST SWAP1 POP PUSH1 0x1 DUP1 PUSH1 0xA0 SHL SUB PUSH1 0x20 DUP6 ADD MLOAD AND PUSH1 0x40 DUP5 ADD MSTORE PUSH1 0x40 DUP5 ADD MLOAD PUSH1 0x60 DUP5 ADD MSTORE PUSH1 0x60 DUP5 ADD MLOAD PUSH1 0x80 DUP5 ADD MSTORE PUSH1 0x80 DUP5 ADD MLOAD PUSH1 0xA0 DUP5 ADD MSTORE DUP1 SWAP2 POP POP SWAP3 SWAP2 POP POP JUMP JUMPDEST PUSH1 0x0 PUSH1 0x20 DUP3 DUP5 SUB SLT ISZERO PUSH2 0x1722 JUMPI PUSH1 0x0 DUP1 REVERT JUMPDEST POP MLOAD SWAP2 SWAP1 POP JUMP INVALID LOG2 PUSH5 0x6970667358 0x22 SLT KECCAK256 POP SWAP12 DUP15 0xD7 SGT PUSH5 0xCF201E00AC SWAP14 PUSH24 0xD32C72EEA655FC64E801148BDACF376A852B6964736F6C63 NUMBER STOP ADDMOD EQ STOP CALLER "},"methodIdentifiers":{"UNISWAP_V2_FACTORY()":"99d8fae3","UNISWAP_V2_ROUTER()":"a82ed9ec","UNISWAP_V3_QUOTER()":"c5c8fb61","UNISWAP_V3_ROUTER()":"41c64a2f","USDC()":"89a30271","WETH()":"ad5c4648","estimateSwap(address,address,uint256,uint8)":"4a7c0d9d","owner()":"8da5cb5b","rescueTokens(address,uint256)":"57376198","swap(address,address,uint256,uint8,uint256)":"b5d8b38f","transferOwnership(address)":"f2fde38b"}}}}}