{
  "_format": "hh-sol-artifact-1",
  "contractName": "UniswapMultihopSwapper",
  "sourceName": "contracts/UniswapMultihopSwapper.sol",
  "abi": [
    {
      "inputs": [],
      "stateMutability": "nonpayable",
      "type": "constructor"
    },
    {
      "anonymous": false,
      "inputs": [
        {
          "indexed": false,
          "internalType": "address[]",
          "name": "path",
          "type": "address[]"
        },
        {
          "indexed": false,
          "internalType": "enum UniswapMultihopSwapper.SwapVersion",
          "name": "version",
          "type": "uint8"
        }
      ],
      "name": "PathFound",
      "type": "event"
    },
    {
      "anonymous": false,
      "inputs": [
        {
          "indexed": true,
          "internalType": "address",
          "name": "user",
          "type": "address"
        },
        {
          "indexed": false,
          "internalType": "address",
          "name": "tokenIn",
          "type": "address"
        },
        {
          "indexed": false,
          "internalType": "address",
          "name": "tokenOut",
          "type": "address"
        },
        {
          "indexed": false,
          "internalType": "uint256",
          "name": "amountIn",
          "type": "uint256"
        },
        {
          "indexed": false,
          "internalType": "uint256",
          "name": "amountOut",
          "type": "uint256"
        },
        {
          "indexed": false,
          "internalType": "enum UniswapMultihopSwapper.SwapVersion",
          "name": "version",
          "type": "uint8"
        }
      ],
      "name": "SwapExecuted",
      "type": "event"
    },
    {
      "inputs": [],
      "name": "UNISWAP_V2_FACTORY",
      "outputs": [
        {
          "internalType": "address",
          "name": "",
          "type": "address"
        }
      ],
      "stateMutability": "view",
      "type": "function"
    },
    {
      "inputs": [],
      "name": "UNISWAP_V2_ROUTER",
      "outputs": [
        {
          "internalType": "address",
          "name": "",
          "type": "address"
        }
      ],
      "stateMutability": "view",
      "type": "function"
    },
    {
      "inputs": [],
      "name": "UNISWAP_V3_QUOTER",
      "outputs": [
        {
          "internalType": "address",
          "name": "",
          "type": "address"
        }
      ],
      "stateMutability": "view",
      "type": "function"
    },
    {
      "inputs": [],
      "name": "UNISWAP_V3_ROUTER",
      "outputs": [
        {
          "internalType": "address",
          "name": "",
          "type": "address"
        }
      ],
      "stateMutability": "view",
      "type": "function"
    },
    {
      "inputs": [],
      "name": "USDC",
      "outputs": [
        {
          "internalType": "address",
          "name": "",
          "type": "address"
        }
      ],
      "stateMutability": "view",
      "type": "function"
    },
    {
      "inputs": [],
      "name": "WETH",
      "outputs": [
        {
          "internalType": "address",
          "name": "",
          "type": "address"
        }
      ],
      "stateMutability": "view",
      "type": "function"
    },
    {
      "inputs": [
        {
          "internalType": "address",
          "name": "tokenIn",
          "type": "address"
        },
        {
          "internalType": "address",
          "name": "tokenOut",
          "type": "address"
        },
        {
          "internalType": "uint256",
          "name": "amountIn",
          "type": "uint256"
        },
        {
          "internalType": "enum UniswapMultihopSwapper.SwapVersion",
          "name": "version",
          "type": "uint8"
        }
      ],
      "name": "estimateSwap",
      "outputs": [
        {
          "internalType": "uint256",
          "name": "estimatedAmount",
          "type": "uint256"
        }
      ],
      "stateMutability": "nonpayable",
      "type": "function"
    },
    {
      "inputs": [],
      "name": "owner",
      "outputs": [
        {
          "internalType": "address",
          "name": "",
          "type": "address"
        }
      ],
      "stateMutability": "view",
      "type": "function"
    },
    {
      "inputs": [
        {
          "internalType": "address",
          "name": "token",
          "type": "address"
        },
        {
          "internalType": "uint256",
          "name": "amount",
          "type": "uint256"
        }
      ],
      "name": "rescueTokens",
      "outputs": [],
      "stateMutability": "nonpayable",
      "type": "function"
    },
    {
      "inputs": [
        {
          "internalType": "address",
          "name": "tokenIn",
          "type": "address"
        },
        {
          "internalType": "address",
          "name": "tokenOut",
          "type": "address"
        },
        {
          "internalType": "uint256",
          "name": "amountIn",
          "type": "uint256"
        },
        {
          "internalType": "enum UniswapMultihopSwapper.SwapVersion",
          "name": "version",
          "type": "uint8"
        },
        {
          "internalType": "uint256",
          "name": "deadline",
          "type": "uint256"
        }
      ],
      "name": "swap",
      "outputs": [
        {
          "internalType": "uint256",
          "name": "amountOut",
          "type": "uint256"
        }
      ],
      "stateMutability": "nonpayable",
      "type": "function"
    },
    {
      "inputs": [
        {
          "internalType": "address",
          "name": "newOwner",
          "type": "address"
        }
      ],
      "name": "transferOwnership",
      "outputs": [],
      "stateMutability": "nonpayable",
      "type": "function"
    }
  ],
  "bytecode": "0x608060405234801561001057600080fd5b50600080546001600160a01b0319163317905561175f806100326000396000f3fe608060405234801561001057600080fd5b50600436106100a95760003560e01c806399d8fae31161007157806399d8fae31461014a578063a82ed9ec14610165578063ad5c464814610180578063b5d8b38f1461019b578063c5c8fb61146101ae578063f2fde38b146101c957600080fd5b806341c64a2f146100ae5780634a7c0d9d146100e6578063573761981461010757806389a302711461011c5780638da5cb5b14610137575b600080fd5b6100c9733bfa4769fb09eefc5a80d6e87c3b9c650f7ae48e81565b6040516001600160a01b0390911681526020015b60405180910390f35b6100f96100f4366004611239565b6101dc565b6040519081526020016100dd565b61011a61011536600461128a565b6103f1565b005b6100c9731c7d4b196cb0c7b01d743fbc6116a902379c723881565b6000546100c9906001600160a01b031681565b6100c9737e0987e5b3a30e3f2828572bb659a548460a300381565b6100c973c532a74256d3db42d0bf7a0400fefdbad769400881565b6100c973fff9976782d46cc05630d1f6ebab18b2324d6b1481565b6100f96101a93660046112b6565b6104b3565b6100c973ed1f6473345f45b75f8179591dd5ba1888cf2fb381565b61011a6101d736600461130f565b61077b565b6000808260018111156101f1576101f1611333565b03610301576000610202868661082b565b905060028151101561024e5760405162461bcd60e51b815260206004820152601060248201526f139bc8158c881c185d1a08199bdd5b9960821b60448201526064015b60405180910390fd5b60405163d06ca61f60e01b815260009073c532a74256d3db42d0bf7a0400fefdbad76940089063d06ca61f9061028a908890869060040161138d565b600060405180830381865afa1580156102a7573d6000803e3d6000fd5b505050506040513d6000823e601f3d908101601f191682016040526102cf91908101906113bc565b905080600182516102e09190611490565b815181106102f0576102f06114a3565b6020026020010151925050506103e9565b600061030d8686610d93565b50905060008151116103545760405162461bcd60e51b815260206004820152601060248201526f139bc8158cc81c185d1a08199bdd5b9960821b6044820152606401610245565b60408051808201825282815260208101869052905163caed066360e01b815273ed1f6473345f45b75f8179591dd5ba1888cf2fb39063caed06639061039d9084906004016114ff565b6080604051808303816000875af11580156103bc573d6000803e3d6000fd5b505050506040513d601f19601f820116820180604052508101906103e09190611531565b50919450505050505b949350505050565b6000546001600160a01b031633146104375760405162461bcd60e51b81526020600482015260096024820152682737ba1037bbb732b960b91b6044820152606401610245565b60005460405163a9059cbb60e01b81526001600160a01b039182166004820152602481018390529083169063a9059cbb906044016020604051808303816000875af115801561048a573d6000803e3d6000fd5b505050506040513d601f19601f820116820180604052508101906104ae9190611583565b505050565b60008084116104f95760405162461bcd60e51b81526020600482015260126024820152710416d6f756e74206d757374206265203e20360741b6044820152606401610245565b42821161053a5760405162461bcd60e51b815260206004820152600f60248201526e111958591b1a5b99481c185cdcd959608a1b6044820152606401610245565b6040516323b872dd60e01b8152336004820152306024820152604481018590526001600160a01b038716906323b872dd906064016020604051808303816000875af115801561058d573d6000803e3d6000fd5b505050506040513d601f19601f820116820180604052508101906105b19190611583565b506001600160a01b03861663095ea7b360008560018111156105d5576105d5611333565b146105f457733bfa4769fb09eefc5a80d6e87c3b9c650f7ae48e61060a565b73c532a74256d3db42d0bf7a0400fefdbad76940085b6040516001600160e01b031960e084901b1681526001600160a01b039091166004820152602481018790526044016020604051808303816000875af1158015610657573d6000803e3d6000fd5b505050506040513d601f19601f8201168201806040525081019061067b9190611583565b50600083600181111561069057610690611333565b036106a8576106a186868685610e37565b90506106b7565b6106b486868685611050565b90505b60405163a9059cbb60e01b8152336004820152602481018290526001600160a01b0386169063a9059cbb906044016020604051808303816000875af1158015610704573d6000803e3d6000fd5b505050506040513d601f19601f820116820180604052508101906107289190611583565b50336001600160a01b03167fa3f37f0446dcac60c3831cc0ebda32d57d7cddb7bef6d734cdd7b0c72c277922878787858860405161076a9594939291906115c7565b60405180910390a295945050505050565b6000546001600160a01b031633146107c15760405162461bcd60e51b81526020600482015260096024820152682737ba1037bbb732b960b91b6044820152606401610245565b6001600160a01b0381166108095760405162461bcd60e51b815260206004820152600f60248201526e496e76616c6964206164647265737360881b6044820152606401610245565b600080546001600160a01b0319166001600160a01b0392909216919091179055565b60405163e6a4390560e01b81526001600160a01b03808416600483015282166024820152606090737e0987e5b3a30e3f2828572bb659a548460a300390600090829063e6a4390590604401602060405180830381865afa158015610893573d6000803e3d6000fd5b505050506040513d601f19601f820116820180604052508101906108b79190611604565b90506001600160a01b038116156109535760408051600280825260608201835260009260208301908036833701905050905085816000815181106108fd576108fd6114a3565b60200260200101906001600160a01b031690816001600160a01b0316815250508481600181518110610931576109316114a3565b6001600160a01b03909216602092830291909101909101529250610d8d915050565b60405163e6a4390560e01b81526001600160a01b03868116600483015273fff9976782d46cc05630d1f6ebab18b2324d6b1460248301526000919084169063e6a4390590604401602060405180830381865afa1580156109b7573d6000803e3d6000fd5b505050506040513d601f19601f820116820180604052508101906109db9190611604565b60405163e6a4390560e01b815273fff9976782d46cc05630d1f6ebab18b2324d6b1460048201526001600160a01b03878116602483015291925060009185169063e6a4390590604401602060405180830381865afa158015610a41573d6000803e3d6000fd5b505050506040513d601f19601f82011682018060405250810190610a659190611604565b90506001600160a01b03821615801590610a8757506001600160a01b03811615155b15610b635760408051600380825260808201909252600091602082016060803683370190505090508781600081518110610ac357610ac36114a3565b60200260200101906001600160a01b031690816001600160a01b03168152505073fff9976782d46cc05630d1f6ebab18b2324d6b1481600181518110610b0b57610b0b6114a3565b60200260200101906001600160a01b031690816001600160a01b0316815250508681600281518110610b3f57610b3f6114a3565b6001600160a01b03909216602092830291909101909101529450610d8d9350505050565b60405163e6a4390560e01b81526001600160a01b038881166004830152731c7d4b196cb0c7b01d743fbc6116a902379c723860248301526000919086169063e6a4390590604401602060405180830381865afa158015610bc7573d6000803e3d6000fd5b505050506040513d601f19601f82011682018060405250810190610beb9190611604565b60405163e6a4390560e01b8152731c7d4b196cb0c7b01d743fbc6116a902379c723860048201526001600160a01b03898116602483015291925060009187169063e6a4390590604401602060405180830381865afa158015610c51573d6000803e3d6000fd5b505050506040513d601f19601f82011682018060405250810190610c759190611604565b90506001600160a01b03821615801590610c9757506001600160a01b03811615155b15610d755760408051600380825260808201909252600091602082016060803683370190505090508981600081518110610cd357610cd36114a3565b60200260200101906001600160a01b031690816001600160a01b031681525050731c7d4b196cb0c7b01d743fbc6116a902379c723881600181518110610d1b57610d1b6114a3565b60200260200101906001600160a01b031690816001600160a01b0316815250508881600281518110610d4f57610d4f6114a3565b6001600160a01b03909216602092830291909101909101529650610d8d95505050505050565b50506040805160008152602081019091529450505050505b92915050565b60606000826001600160a01b0316846001600160a01b031603610db857506000610e30565b506040516bffffffffffffffffffffffff19606085811b8216602084015261017760eb1b603484018190527ffff9976782d46cc05630d1f6ebab18b2324d6b140000000000000000000000006037850152604b84015284901b16604e820152610bb89060620160405160208183030381529060405291505b9250929050565b600080610e44868661082b565b9050600281511015610e885760405162461bcd60e51b815260206004820152600d60248201526c139bc81c185d1a08199bdd5b99609a1b6044820152606401610245565b7f03eb0ea24daa59654077964c3ce8318cb905335394b398063c5268bad552b956816000604051610eba929190611621565b60405180910390a160405163d06ca61f60e01b815260009073c532a74256d3db42d0bf7a0400fefdbad76940089063d06ca61f90610efe908890869060040161138d565b600060405180830381865afa158015610f1b573d6000803e3d6000fd5b505050506040513d6000823e601f3d908101601f19168201604052610f4391908101906113bc565b905060008160018351610f569190611490565b81518110610f6657610f666114a3565b60200260200101519050600073c532a74256d3db42d0bf7a0400fefdbad76940086001600160a01b03166338ed1739886064856063610fa59190611643565b610faf919061165a565b87308b6040518663ffffffff1660e01b8152600401610fd295949392919061167c565b6000604051808303816000875af1158015610ff1573d6000803e3d6000fd5b505050506040513d6000823e601f3d908101601f1916820160405261101991908101906113bc565b9050806001825161102a9190611490565b8151811061103a5761103a6114a3565b6020026020010151945050505050949350505050565b600080600061105f8787610d93565b9150915060008251116110a45760405162461bcd60e51b815260206004820152600d60248201526c139bc81c185d1a08199bdd5b99609a1b6044820152606401610245565b6040805160a081018252838152306020808301919091528183018790526060820188905260006080830181905283518085018552868152918201899052925163caed066360e01b81529192909173ed1f6473345f45b75f8179591dd5ba1888cf2fb39063caed06639061111b9085906004016114ff565b6080604051808303816000875af115801561113a573d6000803e3d6000fd5b505050506040513d601f19601f8201168201806040525081019061115e9190611531565b505050905060648160636111729190611643565b61117c919061165a565b608084015260405163c04b8d5960e01b8152600090733bfa4769fb09eefc5a80d6e87c3b9c650f7ae48e9063c04b8d59906111bb9087906004016116b8565b6020604051808303816000875af11580156111da573d6000803e3d6000fd5b505050506040513d601f19601f820116820180604052508101906111fe9190611710565b9b9a5050505050505050505050565b6001600160a01b038116811461122257600080fd5b50565b80356002811061123457600080fd5b919050565b6000806000806080858703121561124f57600080fd5b843561125a8161120d565b9350602085013561126a8161120d565b92506040850135915061127f60608601611225565b905092959194509250565b6000806040838503121561129d57600080fd5b82356112a88161120d565b946020939093013593505050565b600080600080600060a086880312156112ce57600080fd5b85356112d98161120d565b945060208601356112e98161120d565b9350604086013592506112fe60608701611225565b949793965091946080013592915050565b60006020828403121561132157600080fd5b813561132c8161120d565b9392505050565b634e487b7160e01b600052602160045260246000fd5b600081518084526020808501945080840160005b838110156113825781516001600160a01b03168752958201959082019060010161135d565b509495945050505050565b8281526040602082015260006103e96040830184611349565b634e487b7160e01b600052604160045260246000fd5b600060208083850312156113cf57600080fd5b825167ffffffffffffffff808211156113e757600080fd5b818501915085601f8301126113fb57600080fd5b81518181111561140d5761140d6113a6565b8060051b604051601f19603f83011681018181108582111715611432576114326113a6565b60405291825284820192508381018501918883111561145057600080fd5b938501935b8285101561146e57845184529385019392850192611455565b98975050505050505050565b634e487b7160e01b600052601160045260246000fd5b81810381811115610d8d57610d8d61147a565b634e487b7160e01b600052603260045260246000fd5b6000815180845260005b818110156114df576020818501810151868301820152016114c3565b506000602082860101526020601f19601f83011685010191505092915050565b60208152600082516040602084015261151b60608401826114b9565b9050602084015160408401528091505092915050565b6000806000806080858703121561154757600080fd5b8451935060208501516115598161120d565b604086015190935063ffffffff8116811461157357600080fd5b6060959095015193969295505050565b60006020828403121561159557600080fd5b8151801515811461132c57600080fd5b600281106115c357634e487b7160e01b600052602160045260246000fd5b9052565b6001600160a01b03868116825285166020820152604081018490526060810183905260a081016115fa60808301846115a5565b9695505050505050565b60006020828403121561161657600080fd5b815161132c8161120d565b6040815260006116346040830185611349565b905061132c60208301846115a5565b8082028115828204841417610d8d57610d8d61147a565b60008261167757634e487b7160e01b600052601260045260246000fd5b500490565b85815284602082015260a06040820152600061169b60a0830186611349565b6001600160a01b0394909416606083015250608001529392505050565b602081526000825160a060208401526116d460c08401826114b9565b905060018060a01b0360208501511660408401526040840151606084015260608401516080840152608084015160a08401528091505092915050565b60006020828403121561172257600080fd5b505191905056fea2646970667358221220509b8ed71364cf201e00ac9d77d32c72eea655fc64e801148bdacf376a852b6964736f6c63430008140033",
  "linkReferences": {},
  "deployedLinkReferences": {}
}